:020000040800F2
:1000000000500020050200084D0200084D020008C3
:100010004D0200084D0200084D02000800000000DB
:1000200000000000000000000000000011030008B4
:100030004D0200080000000041030008850300088D
:100040004D0200084D0200084D0200084D02000854
:100050004D0200084D0200084D0200084D02000844
:100060004D0200084D0200084D0200084D02000834
:100070004D0200084D0200084D0200084D02000824
:100080004D0200084D0200084D0200084D02000814
:100090004D0200084D0200084D0200084D02000804
:1000A0004D0200084D0200084D0200084D020008F4
:1000B0004D0200084D0200084D0200084D020008E4
:1000C0004D0200084D0200084D0200084D020008D4
:1000D0004D0200084D0200084D0200084D020008C4
:1000E0004D0200084D0200084D020008000000000B
:1000F0000000000000000000000000000000000000
:0C01000000000000000000005FF808F1A3
:10011000044B05481B1A062B02D9044B03B11847A0
:10012000704700BF03000020000000200000000016
:1001300005490648091A891001EBD171491002D00E
:10014000034B03B118477047000000200000002057
:100150000000000010B5064C237843B9FFF7D8FF24
:10016000044B13B10448AFF300800123237010BD8A
:100170000000002000000000D005000808B5084B72
:100180001BB108490848AFF300800848036813B959
:10019000BDE80840CCE7064B002BF9D09847F7E7BD
:1001A0000000000004000020D0050008000000202E
:1001B0000000000070B50F4E0F4D761BB61018BF33
:1001C000002405D0013455F8043B9847A642F9D1E4
:1001D0000A4E0B4D00F0FCF9761BB61018BF002438
:1001E00006D0013455F8043B9847A642F9D170BDBA
:1001F00070BD00BFE8050008E8050008EC05000830
:10020000E8050008002103E00B4B5B584350043124
:100210000A480B4B42189A42F6D30A4A02E00023DE
:1002200042F8043B084B9A42F9D300F045F8FFF737
:10023000C1FF00F019F87047F00500080000002029
:100240000000002000000020AC010020FEE70000BC
:10025000044B586000229A60024B1B6813F4803FE5
:10026000FAD0704710E000E008B50E4A936943F0F9
:100270003D0393614FF000720B4B5A6001220B4B10
:100280001A6020220A4B1A60094D02232B61094C87
:100290002046FFF7DDFF4FF400332B612046FFF7C8
:1002A000D7FFF1E7001002400000014010E000E03D
:1002B0000008014020A107000F4B1A6842F001021C
:1002C0001A6059680D4A0A405A601A6822F084720E
:1002D00022F480321A601A6822F480221A605A6866
:1002E00022F4FE025A604FF41F029A604FF000623F
:1002F000034B9A60704700BF001002400000FFF8F7
:1003000000ED00E000000000000000000000000020
:10031000074B19680868B0E8F00F80F30988BFF34D
:100320006F8F4FF0000080F311884EF00D0E704774
:100330001C00002000000000000000000000000081
:10034000EFF30980BFF36F8F0D4B1A6820E9F00FB0
:1003500010602DE908404FF0200080F3118800F074
:10036000EBF84FF0000080F31188BDE808401968F1
:100370000868B0E8F00F80F30988BFF36F8F70470B
:100380001C00002008B54FF0200383F31188BFF351
:100390006F8FBFF34F8F00F01FF818B14FF08052EE
:1003A000024B1A60002383F3118808BD04ED00E0BE
:1003B000074B1B681B6833B1054B1B68DB681A6869
:1003C000044B1A6070474FF0FF32024B1A607047BF
:1003D0002000002098010020F8B54C4B1B68002B32
:1003E00040F08C804A4B1C6801341C60C4B9494BF6
:1003F0001B681B6843B14FF0200383F31188BFF3E0
:100400006F8FBFF34F8FFEE7424A1168424B186867
:1004100010601960414A136801331360FFF7C8FF89
:100420003F4B1B689C4259D200203E4B1B68002B5F
:100430006AD1F8BD0120374B1B681B68002B4FD0D9
:10044000344B1B68DB68DB685A6894424DD35A69A9
:100450009968DD688D60D9689D684D6051681E1D82
:10046000B14245D0002159611168013911609A6A81
:100470007AB1D9691D6A8D60196ADD694D60556868
:1004800003F118018D4236D00021996211680139BB
:100490001160DA6A01219140234D2F6839432960A8
:1004A000224902EB820295000D446A689A609568C1
:1004B000DD6095686E609660DE6AB2009719BD00D7
:1004C0004F195F614D590135324496008D51DA6AFA
:1004D000174B1B68DB6A9A42ACD8ACE70020AAE74E
:1004E0004FF0FF320E4B1A609FE70D4B1A609CE7EE
:1004F000D9685160B6E7196A5160C5E70D4A1368BB
:10050000013313600020F8BD0120F8BD90010020E8
:10051000A401002020000020240000209C010020D5
:1005200098010020A801002094010020280000204C
:100530001C000020A0010020204B1B68C3B9002232
:100540001F4B1A601F4B1B68B3FA83F3DBB2C3F176
:100550001F0303EB83018A001B498A5862B94FF0DD
:10056000200383F31188BFF36F8FBFF34F8FFEE734
:100570000122134B1A60704710B413489A00D41824
:10058000A10001444C6864684C601A449100083131
:10059000084484420AD003EB83039A000A4B1344B5
:1005A0005B68DA68094B1A6010BC70479A001A44FD
:1005B0009100054A0A44D1685160ECE7900100209F
:1005C000A801002094010020280000201C00002029
:1005D000F8B500BFF8BC08BC9E467047F8B500BF30
:0805E000F8BC08BC9E46704700
:0405E8007D01000889
:0405EC0055010008AD
:0400000508000205E8
:00000001FF
